:020000040800F2
:100000005006002005010008471B0008D118000811
:10001000451B00089D010008792000080000000031
:100020000000000000000000000000004B1B000862
:100030009F01000800000000491B00084D1B00083C
:100040001F0100081F0100081F0100081F01000810
:100050001F0100081F010008A1010008A7010008F6
:100060001F0100081F0100081F0100081F010008F0
:100070001F0100081F0100081F0100081F010008E0
:100080001F0100081F0100081F0100081F010008D0
:100090001F0100081F0100081F0100081F010008C0
:1000A0001F010008BD1B00081F010008B11B00084C
:1000B0001F0100081F0100081F0100081F010008A0
:1000C0001F0100081F0100081F0100081F01000890
:1000D0001F0100086D2000081F0100081F01000813
:1000E0001F0100081F0100081F010008DFF810D0E1
:1000F00000F042F80048004791220008AFF300806A
:10010000500600200648804706480047FEE7FEE705
:10011000FEE7FEE7FEE7FEE7FEE7FEE7FEE7FEE7B7
:10012000AF1B0008ED000008D2B201E000F8012B7F
:10013000491EFBD270470022F6E710B513460A4667
:1001400004461946FFF7F0FF204610BD30B50B46B8
:10015000014600202022012409E021FA02F59D42F7
:1001600005D303FA02F5491B04FA02F52844151ECB
:10017000A2F10102F1DC30BD064C074D06E0E0685B
:1001800040F0010394E8070098471034AC42F6D3DE
:10019000FFF7B0FF7423000894230008FEE77047C0
:1001A000012000F0AFB8022000F0ACB872B6FEE754
:1001B00010B590F821100022022905D00421816396
:1001C00080F82020012010BD01680B6823F00E0389
:1001D0000B6001680B6823F001030B6090F840305E
:1001E000C46B012101FA03F3636080F8211080F8E9
:1001F0002020104610BD000010B590F821100024FA
:10020000022903D00421816301243DE001680A68CA
:1002100022F00E020A6001680A6822F001020A60F8
:100220001A4A0168914201D1012121E0174A143292
:10023000914201D110211BE0144A2832914201D190
:10024000891515E0114A3C32914201D189140FE021
:100250000E4A5032914202D14FF4803108E00B4AED
:100260006432914202D14FF4801101E04FF080716D
:10027000064A083A5160012180F82110002180F8D7
:100280002010416B01B18847204610BD0800024094
:1002900070B5044600F044F90546601C02D00448DD
:1002A0000078044400F03CF9401BA042FAD370BD32
:1002B0000800002070B5104A104D114C012807D0DD
:1002C000022818D10221104600F018F960B110E0A0
:1002D0000121104600F012F920B94FF400712846B0
:1002E00000F011F9012005E04FF48071284600F07C
:1002F0000AF90220206070BD00100140000C01408E
:1003000014040140044910B50A68024202D0086092
:10031000FFF7D0FF10BD0000140401402DE9F84F95
:10032000DFF8B891002409F1040A0AF1040B23460E
:100330000F270BF1040EC9E00125A5402A40AA426F
:100340007DD1674ED1F804C0ACEB0608B44532D07D
:1003500014DCBCF1030F3AD009DCBCF1000F2AD049
:10036000BCF1010F1CD0BCF1020F31D11DE0BCF17A
:10037000110F17D0BCF1120F2AD119E0B8F5881F60
:1003800019D006DCB8F5803F15D0B8F5801F1FD115
:1003900011E0B8F5001F0ED0B8F5041F18D10AE01F
:1003A000CB6815E0CB681B1D12E0CB6808330FE06B
:1003B000CB680C330CE08B682BB1012B4FF008039A
:1003C00003D0456104E0042302E0056100E000235E
:1003D000FF2A01D8064601E000F104064FEA840531
:1003E00001D9A5F12005D6F8008007FA05FC28EA16
:1003F0000C0803FA05F548EA0508C6F800804D68C0
:10040000ED0062D5374DAE6946F00106AE61AD69CB
:1004100024F0030605F001050095334D06EB050CAD
:10042000DCF80850A607360F07FA06F825EA080593
:10043000DFF8B880404503D14FF0000817E044E0F2
:10044000DFF8AC80404502D14FF001080FE0DFF843
:10045000A480404502D14FF0020808E0DFF8988000
:10046000404502D14FF0030801E04FF0040808FABC
:1004700006F848EA0508CCF808804D68D9F800600D
:10048000ED034D4601D5164300E096432E604D68BE
:10049000DAF80060AD03554601D5164300E09643F7
:1004A0002E604D68DBF80060ED025D4601D5164315
:1004B00000E096432E604D68DEF80060AD027546A0
:1004C00001D5164300E096432E60641C0D682A4651
:1004D000E5407FF431AFBDE8F88F00000004014033
:1004E000000011100010024000000140000801400F
:1004F000000C0140001001400014014080680840D9
:1005000000D001207047C26821EA02030A4043EA92
:100510000241016170470AB1016170470904FBE7BC
:1005200001488068704700000800002070B5040092
:1005300025D094F83D00002520B984F83C50204691
:1005400000F0B8F8242084F83D002068016821F00C
:10055000010101602068016841F4004101602068E8
:10056000016821F40041016000F00EFA4D4A616813
:10057000914201D84C4900E04C49884201D2012007
:1005800070BD4B492368B0FBF1F15E6826F03F0671
:100590000E435E606368934206D94FF496735943E5
:1005A0004FF47A73B1FBF3F12368491C1E6A26F0FD
:1005B0003F06314319626168914210D84900401EDC
:1005C000B0FBF1F2521CC2F30B02042A01D2042048
:1005D00022E0B0FBF1F0401CC0F30B001CE0A2686D
:1005E000F2B301EBC10303EB0116431EB3FBF6F3B9
:1005F0005B1C43F480431B0549D092B301EBC1025D
:1006000002EB0111401EB0FBF1F0401CC0F30B00E7
:1006100040F4804040F400402168CA694CF6FF7302
:100620009A431043C861D4E9071001432068026867
:1006300022F0C00211430160D4E9030101432068A4
:10064000826848F2FF339A4311438160D4E905017F
:1006500008432168CA6822F0FF021043C86001E025
:100660000EE016E02068016841F001010160256498
:10067000202084F83D00256384F83E50002070BDA2
:1006800001EB4106431EB3FBF6F35B1CB3E701200D
:10069000C2E701EB4101401EB0FBF1F0401CC0F38A
:1006A0000B00B7E7A086010080841E0000093D0012
:1006B00040420F0010B586B00021009101910291D7
:1006C000039100681349884222D1134CE06940F439
:1006D0000010E061E06900F400100490A06940F0AF
:1006E0000800A061A069694600F008000490C020DD
:1006F000009012200190032003900848FFF70EFE9F
:10070000E06940F40010E061E06900F4001004903A
:1007100006B010BD0054004000100240000C014023
:100720000248816802781144816070470800002007
:10073000074810B5016841F010010160032000F086
:1007400075F80F2000F006F800F024F8002010BD26
:100750000020024070B50D4D04464FF47A712878A0
:10076000B1FBF0F00A490968B1FBF0F000F0F2FAD1
:1007700048B9102C07D200222146501E00F036F84E
:1007800000206C6070BD012070BD000008000020DA
:10079000140000200C4808B5816941F00101816115
:1007A000816901F001010091C16941F08051C1618D
:1007B000C06900F0805000900448416821F0E06179
:1007C00041F00071416008BD00100240000001408E
:1007D000002809DB00F01F02012191404009800040
:1007E00000F1E020C0F8001170470000F0B40E4B9B
:1007F0001B680C46C3F30223C3F10705042D00D97F
:100800000425191D072901D2002300E0DB1E012663
:1008100006FA05F1491E214099409E40761E164079
:100820003143F0BC01F03ABC0CED00E0064900F0A9
:10083000070208684FF6FF03184040EA0220034A07
:1008400010430860704700000CED00E00000FA055E
:100850002DE9F0470F46050061D0434E306800F0A7
:100860000700B84209D2306820F0070038433060F2
:10087000306800F00700B84251D128683B4C81072E
:1008800012D5400703D5606840F4E06060602878C6
:10089000000703D5606840F4605060606068A96834
:1008A00020F0F000084360602878C00728D068680E
:1008B000012810D02168022810D0890700292EDADB
:1008C000616821F0030101436160FFF729FE804662
:1008D00041F288390DE021688903EFE78901EDE7EE
:1008E000FFF71EFEA0EB0801494502D90320BDE831
:1008F000F0876068696800F00C00B0EB810FEFD101
:10090000306800F00700B8420BD9306820F00700CB
:1009100038433060306800F00700B84201D0012051
:10092000E5E72878400705D56068E96820F4E060CD
:10093000084360602878000706D56068296920F4BC
:10094000605040EAC100606000F03EF86168084A0B
:10095000C1F30311515CC8400649086006480068AD
:10096000FFF7F8FE0020C2E700200240001002401E
:100970005C230008140000200C00002001480068DF
:1009800070470000140000200448054900684968C9
:10099000044AC1F30221515CC84070471400002092
:1009A000001002406C2300080448054900684968AB
:1009B000044AC1F3C221515CC840704714000020B2
:1009C000001002406C23000812A185B00FC98DE809
:1009D0000F0014A0144A006804905168134801F0F5
:1009E0000C03042B10D0082B0ED1C1F38343C90391
:1009F0001DF803000AD5516804AAC1F34041515CB7
:100A00000A4A5043B0FBF1F005B07047084948432B
:100A1000FAE7000002030405060708090A0B0C0D9B
:100A20000E0F1010010200000010024000127A00A8
:100A300000093D002DE9F84F040070D02078C04D2A
:100A4000C00749D06868C0F38100012807D06868F2
:100A5000C0F38100022809D16868C00306D5286860
:100A6000800339D560680028E7D035E06068B0F5CC
:100A7000803F0BD010B1B0F5A02F11D0286820F422
:100A800080302860286820F4802002E0286840F444
:100A900080302860606890B1FFF742FD06460AE0AA
:100AA000286840F480202860F0E700BFFFF738FD99
:100AB000801B642873D828688003F7D50CE0FFF703
:100AC0002FFD064605E000BFFFF72AFD801B6428C6
:100AD000F0D828688003F7D420789A4E80074FF02A
:100AE00001094FF0000839D5686810F00C0F07D0E5
:100AF0006868C0F38100022809D16868C00306D481
:100B00002868800714D52069012808D110E02069E1
:100B1000B0B1C6F80090FFF703FD074605E00AE113
:100B2000FFF7FEFCC01B0228C4D828688007F7D551
:100B30002868616920F0F80040EAC10028600DE0F3
:100B4000C6F80080FFF7ECFC074604E0FFF7E8FC7E
:100B5000C01B022823D828688007F7D42078000714
:100B60002CD57948A169D9B1C0F80090FFF7D8FC1D
:100B7000074604E0FFF7D4FCC01B02280FD8686AC0
:100B80008007F7D571484FF4FA510068B0FBF1F0D7
:100B9000009000BF0098411E0091FAD20EE080E064
:100BA000C0F80080FFF7BCFC074604E0FFF7B8FC84
:100BB000C01B022875D8686A8007F7D420784007E0
:100BC00060D5E8690027C00008D4E86940F080508B
:100BD000E861E869012700F0805000905C480168F6
:100BE000C90513D40168834641F480710160FFF7A1
:100BF00097FC824606E000BFFFF792FCA0EB0A00DC
:100C000064284ED8DBF80000C005F5D5E06801285F
:100C10000AD008B1052813D0286A20F00100286204
:100C2000286A20F0040002E0286A40F001002862EF
:100C3000E06841F2883B98B1FFF772FC82460BE016
:100C4000286A40F004002862EEE700BFFFF768FC66
:100C5000A0EB0A0159455AD8286A8007F6D50CE05E
:100C6000FFF75EFC824605E0FFF75AFCA0EB0A01A5
:100C700059454CD8286A8007F6D41FB1E86920F09E
:100C80008050E861E06988B36968C1F38101022995
:100C900044D00228C6F8608004D0FFF741FC044627
:100CA00038E034E0FFF73CFC074604E0FFF738FC8F
:100CB000C01B02282BD828688001F7D4206AB0F521
:100CC000803F05D16868A16820F40030084368605F
:100CD000D4E908010843696821F474110843686085
:100CE000C6F86090FFF71CFC044606E025E000BF54
:100CF000FFF716FC001B022809D828688001F7D5E9
:100D00001BE000BFFFF70CFC001B022802D90320E8
:100D1000BDE8F88F28688001F4D40EE00128F7D0F0
:100D20006868226A00F48031914204D1616A00F45B
:100D30007010884201D00120EAE70020E8E70000B7
:100D40000010024000004242800442421400002091
:100D50000070004010B5401EB0F1807F01D301202B
:100D600010BD4FF0E02460610F21601701F096F98B
:100D70000020A06107202061002010BD704770474F
:100D800070B590F83C20012A26D0012480F83C4020
:100D9000022280F83D2003685A689D6822F07006A0
:100DA0000A6832435A600D4B02689A4208D0B2F189
:100DB000804F05D00A4B9A4202D00A4B9A4204D186
:100DC000496825F080031943916080F83D40002177
:100DD00080F83C10084670BD022070BD002C014018
:100DE000000400400008004090F83D10012901D0A7
:100DF00001207047022180F83D100168CA6842F066
:100E00000102CA6000680B49884208D0B0F1804FE7
:100E100005D00949884202D00849884204D1816836
:100E200001F00701062903D0016841F001010160CA
:100E300000207047002C01400004004000080040E2
:100E40002DE9F041234DA84230D1234C23480127FE
:100E500022780178002622B1012A27D1012936D132
:100E600026E0A6606660467001291ED12868016AE6
:100E700041F21112114207D1016A9210114203D1BD
:100E8000016821F001010160286846622868016A52
:100E900021F00A0101622868016A41F00201016241
:100EA0002868016841F0010101602770BDE8F08108
:100EB0004078A0600021074800F0F8FA60602868D8
:100EC000016A21F00A0101622868016A0162267044
:100ED0006770EBE77C0100201C010020000000206F
:100EE0002DE9F041054690F83C000C46012836D02B
:100EF000012085F83C008AB3042A42D02868082AD9
:100F000051D0D4E90023E168066A26F480560662CF
:100F1000C669076A26F4407646EA03234FF6FF7651
:100F200006EA013123F4704319434FF4005627F4C5
:100F3000005306EA02321A43C16102622868C1699D
:100F400021F44061C1612868C169A26841EA0221B7
:100F5000C161002085F83C00BDE8F08101E002207D
:100F6000FAE7D4E90012E368286800F013FF286864
:100F7000816921F00C01816128688169A2681143AF
:100F80000FE0D4E90012E368286800F02FFF28681A
:100F9000816921F44061816128688169A26841EA20
:100FA00002218161D5E7D4E90027267B016A21F47B
:100FB00080710162C169036A21F00301394321F0A4
:100FC000F00731074FF4007647EA116123F400730C
:100FD00006EA02221A43C16102622868C16921F04F
:100FE0000C01C1612868C169A2681143B0E710B55E
:100FF000040003D094F83D0010B107E0012010BDBB
:10100000002084F83C00204600F01EF8022084F8FE
:101010003D00211D206800F0D7FD012084F8460026
:1010200084F83E0084F83F0084F8400084F84100D2
:1010300084F8420084F8430084F8440084F84500B2
:1010400084F83D00002010BD00B585B0002100915E
:1010500001910291039100681649884227D11648F0
:10106000816941F400618161816901F40061049149
:10107000816941F0040181618069694600F00400E2
:1010800004904FF4807000900C48FFF747F900225D
:1010900002211920FFF7AAFB1920FFF799FB002274
:1010A00002211B20FFF7A2FB1B20FFF791FB05B0DD
:1010B00000BD0000002C014000100240000801406B
:1010C00010B5044651B104290DD0082910D094F868
:1010D000410094F84520012811D10EE094F83E001B
:1010E00094F84220F7E794F83F0094F84320F2E7A1
:1010F00094F8400094F84420EDE7012A01D0012043
:1011000010BD022051B1042911D0082918D084F84B
:10111000410084F845000C291BD136E084F83E00DC
:1011200084F842002068C26842F0020210E084F8AD
:101130003F0084F843002068C26842F0040207E0E0
:1011400084F8400084F844002068C26842F0080235
:10115000C2600122206800F06DFD0E4920688842BF
:1011600008D0B0F1804F05D00B49884202D00B491E
:10117000884204D1816801F00701062903D0016883
:1011800041F001010160002010BD2068C26842F0FA
:101190001002DDE7002C0140000400400008004080
:1011A00070B50446006801694FF00005C94389071E
:1011B00015D4C168C943890711D4E91E0161012012
:1011C0002077206880698007204602D0FFF738FE2C
:1011D00004E000F0BDF8204600F05EF925772068B5
:1011E0000169C943490717D4C168C943490713D4E2
:1011F0006FF004010161022020772068806910F4FB
:10120000407F204602D0FFF71BFE04E000F0A0F86C
:10121000204600F041F9257720680169C943090794
:1012200016D4C168C943090712D46FF008010161DF
:10123000042020772068C0698007204602D0FFF78D
:10124000FFFD04E000F084F8204600F025F9257742
:1012500020680169C943C90617D4C168C943C906D2
:1012600013D46FF010010161082020772068C06955
:1012700010F4407F204602D0FFF7E2FD04E000F0CA
:1012800067F8204600F008F9257720680169C9430E
:10129000C90708D1C168C943C90704D1891E0161C2
:1012A000204600F0FBF820680169C943090609D40B
:1012B000C168C943090605D46FF080010161204669
:1012C000FFF75CFD20680169C943490609D4C1687C
:1012D000C943490605D46FF040010161204600F082
:1012E000FAF820680169C94389060BD4C168C9436B
:1012F000890607D46FF0200101612046BDE87040E7
:10130000FFF73DBD70BD000000B585B00021009124
:101310000191029103910068B0F1804F11D10A4808
:10132000816941F0040181618069022100F00400BB
:1013300004900320CDE90001039069460348FEF7BD
:10134000EDFF05B000BD00000010024000080140A4
:10135000704770B5044690F83C000D4601280AD04D
:10136000012084F83C0042B1042A18D0082A2AD06F
:101370000C2A4DD139E0022070BD206800F068FCD5
:101380002068816941F0080181612068816921F04C
:1013900004018161206881692A69114311E0206894
:1013A00000F07EFC2068816941F400618161206861
:1013B000816921F480618161206881692A6941EA3B
:1013C0000221816124E0206800F096FC2068C16958
:1013D00041F00801C1612068C16921F00401C161C7
:1013E0002068C1692A69114311E0206800F0B0FC4F
:1013F0002068C16941F40061C1612068C16921F4BC
:101400008061C1612068C1692A6941EA0221C16124
:10141000002084F83C0070BD10B5040003D094F89F
:101420003D0010B107E0012010BD002084F83C0011
:10143000204600F01FF8022084F83D00211D20689E
:1014400000F0C2FB012084F8460084F83E0084F8D6
:101450003F0084F8400084F8410084F8420084F89A
:10146000430084F8440084F8450084F83D000020DF
:1014700010BD000008B50068B0F1804F08D10548E4
:10148000C16941F00101C161C06900F00100009033
:1014900008BD00000010024070470000024841787B
:1014A000491C4170704700000000002002460020E7
:1014B00041B1042909D008290AD00C2901D11068AA
:1014C000006C70471068406B70471068806B704705
:1014D0001068C06B7047704770477047F8B5026876
:1014E00004461068D168536910F00F0F4FF00005E3
:1014F00053D003F0010601F4907737435FD0C20761
:1015000005D0CA0503D5226C42F0010222644207CD
:1015100005D5DA0703D0226C42F00202226482076A
:1015200005D5DA0703D0226C42F0040222640207D8
:1015300007D501F02002324303D0226C42F00802AA
:101540002264226C002A34D0800604D5880602D595
:10155000204600F086FC20684069216CC0F38010B2
:10156000090700D430B3204600F063FC20684169CD
:1015700049061BD5416921F040014161A06BA8B12A
:1015800058494163A06BFEF737FE002811D0A06BCD
:10159000416B01B0BDE8F040084783060FD58B06CC
:1015A0000DD52046BDE8F84000F05BBC2046FFF7B3
:1015B00094FFF8BD2046FFF790FF2564F8BD266B29
:1015C0002023012E52D1C60650D5CE064ED5106826
:1015D00050680090506940062AD5A16B08684068A1
:1015E0000004000CEAD0A68D8642E7D9E085886920
:1015F000202818D0D06820F48070D060206841691D
:1016000021F0010141612068416921F040014161FF
:1016100084F83E3025632068C16821F01001C16064
:10162000A06BFEF7C5FDA08DE18D401A81B219E0D7
:10163000A08DE18D401A81B2E08D0028BED0002936
:10164000BCD0D06820F49070D0602068426922F04D
:101650000102426184F83E3025632068C26822F0AE
:101660001002C2602046FFF737FFF8BD05062BD5F4
:101670000D0629D594F83D002128F6D1A068B0F5D3
:10168000805F01D12069B0B1206A411C21622168CC
:1016900000784860E08C401E0004000CE084E4D137
:1016A0002068C16821F08001C1602068C16841F0F4
:1016B0004001C160F8BD206A0088C0F30800506096
:1016C000206A801C2062E5E74006F3D54806F1D584
:1016D000D168204621F04001D16084F83D3000F00F
:1016E000F6F8F8BD231E000870B5040004D094F885
:1016F0003D00002510B106E0012070BD84F83C508B
:10170000204600F023F8242084F83D002068C168BA
:1017100021F40051C160204600F0FEFB2068016901
:1017200021F4904101612068416921F02A01416161
:101730002068C16841F40051C1602564202084F80C
:101740003D0084F83E00002070BD000030B585B03B
:10175000002400940194029403940068184988427C
:101760002CD11848816941F480418161816901F47B
:1017700080410491816941F0040181618069124DC9
:1017800000F0040004904FF40070009002200190DB
:101790000320039069462846FEF7C0FD2815CDE9D1
:1017A0000004694628460294FEF7B8FD002211465F
:1017B0002520FFF71BF82520FFF70AF805B030BDFC
:1017C00000380140001002400008014090F83E300F
:1017D000202B0ED159B152B190F83C30012B08D0DA
:1017E000012380F83C300023036300F0F1BB0120AB
:1017F000704702207047000010B500230122054900
:10180000054800F00BF8BDE81040012201490248EC
:10181000FFF7DCBF1C0000200C0200202DE9F8437C
:10182000044690F83D001F4616460D4620284CD130
:10183000C5B1BEB194F83C00012846D0012084F81F
:101840003C004FF00008C4F84080212084F83D009F
:10185000FEF766FEA6848146E684A068B0F5805F48
:1018600003D004E00120BDE8F883206928B12E46AA
:101870005FF0000584F83C800EE00026FAE7802146
:10188000204600F0C0FBA0B9AEB116F8010B2168EC
:101890004860E08C401EE084E08C4B464FF0000234
:1018A00000970028EBD14FF04001204600F0ABFB41
:1018B00030B10320D7E735F8020BC0F30800E6E7A4
:1018C000202084F83D000020CDE70220CBE77047C0
:1018D000FEE700002DE9F04F85B000263A4800965B
:1018E000019602960396816941F020018161816928
:1018F00001F020010491816941F010018161816949
:1019000001F010010491816941F004018161816954
:1019100001F004010491816941F00801816180694D
:10192000DFF8A89000F0080004900022FC2148464F
:10193000FEF7F1FDDFF898A04FF4807700223946DA
:101940005046FEF7E8FDDFF88CB04FF440780022F7
:1019500041465846FEF7DFFD032000901E48012552
:10196000CDE9010569465046FEF7D8FCFC20009001
:101970000224CDE90154694648460394FEF7CEFCA3
:101980000097CDE90154694650460394FEF7C6FC22
:10199000CDE90264CDE9008569465846FEF7BEFCF4
:1019A000002201210620FEF721FF0620FEF710FF8E
:1019B000002201210720FEF719FF0720FEF708FF8C
:1019C00005B0BDE8F08F00000010024000080140A3
:1019D00000100140000C0140000021100D4810B51E
:1019E0000B4901600C49416000211422C0E9021238
:1019F0004FF48042C0E904218161C1610162FEF7B8
:101A000095FD002803D0BDE81040FEF7CFBB10BD08
:101A10000054004028010020801A060010B586B04E
:101A200000241948059404940094019402941549E3
:101A3000039401604721C0E901144FF6FF71C0E92A
:101A4000031444618461FFF7D2FA08B1FEF7AEFBDC
:101A5000049404A90C480594FFF792F908B1FEF725
:101A6000A5FB0120CDE9004002940022694606480A
:101A70000394FFF735FA002801D0FEF797FB06B074
:101A800010BD0000002C01407C01002010B58AB080
:101A9000002407941C2168460894FEF74CFB1A4862
:101AA0004FF08041016040F2CF71C0E90114FF2185
:101AB000C0E903148461FFF7AFFC08B1FEF776FBC1
:101AC000079407A910480894FFF75AF908B1FEF7E0
:101AD0006DFB6020CDE900040294002269460A48AB
:101AE0000494FFF736FC08B1FEF760FB0422694658
:101AF0000548FFF72EFC08B1FEF758FB0248FFF738
:101B000003FC0AB010BD0000C40100200C4810B551
:101B10000A4901604FF416514160002181600C2296
:101B2000C160C0E904128161C161FFF7DDFD0028D9
:101B300003D0BDE81040FEF739BB10BD00380140AE
:101B40000C020020FEE7FEE770477047FEF7E8BD95
:101B500030B58FB028216846FEF7EDFA14210AA8A7
:101B6000FEF7E9FA01210804CDE9001000240294EF
:101B700002250491CDE907504FF4E0100990684622
:101B8000FEF758FF08B172B6FEE70F20CDE90A054F
:101B90004FF48060CDE90C4002210AA80E94FEF7B4
:101BA00057FE002801D072B6FEE70FB030BD704777
:101BB0000148FFF7F5BA00007C0100200148FFF75B
:101BC000EFBA00007C010020F0B50268164B174CFC
:101BD000174D4FF08047984205D0B84203D0A0423D
:101BE00001D0A84203D122F070064A6832439842DD
:101BF00005D0B84203D0A04201D0A84203D122F4BC
:101C00004074CA6822434C6922F080022243026079
:101C10008A68C2620A688262984201D109690163D6
:101C200001214161F0BD0000002C01400004004092
:101C30000008004010B501F01F030121046A99401B
:101C40008C430462016A9A401143016210BD000096
:101C500030B5026A22F001020262026A43688469B6
:101C600024F073050C682C4322F002058A682A438D
:101C70000A4DA8420BD122F00805CA6823F440732C
:101C80002A434D6922F004021D438B692B434360B4
:101C9000846149684163026230BD0000002C01404C
:101CA00030B5026A22F010020262026A4368846957
:101CB0000D6824F4E64444EA05248D6822F02002ED
:101CC00042EA05120B4DA8420ED1CD6822F08002E7
:101CD00042EA05124D6923F4406343EA85038D69A6
:101CE00022F0400243EA85034360846149688163CE
:101CF000026230BD002C014030B5026A22F48072CD
:101D00000262036A4268C46923F4007324F0730515
:101D10000C682C438D6843EA05230C4DA8420ED174
:101D2000CD6823F4006343EA05234D6922F4405251
:101D300042EA05128D6923F4806342EA051242608B
:101D4000C4614968C163036230BD0000002C0140DA
:101D500030B5026A22F480520262046A4268C369A2
:101D60000D6823F4E64343EA05238D6824F4005408
:101D700044EA0534064DA84204D14D6922F480425C
:101D800042EA85124260C36149680164046230BD61
:101D9000002C014070B5046A24F0010404628469D7
:101DA000056A0F4EB04208D0B0F1804F05D00D4EFD
:101DB000B04202D00C4EB04203D124F003041443CD
:101DC00001E044F001041A0724F0F00444EA12622E
:101DD00025F00A0301F00A0119438261016270BD16
:101DE000002C0140000400400008004030B5046AA7
:101DF00024F0100404628469056A24F4407444EAFF
:101E0000022222F470444FF6FF7202EA03322243A8
:101E1000A02425F0A00304EA0111194382610162A4
:101E200030BD10B5406A0021C185C184FFF755FB64
:101E300010BD0168CA6822F49072CA6001684A69DC
:101E400022F001024A61016B012904D10168CA68CC
:101E500022F01002CA60202180F83E1000210163A8
:101E6000704708B590F83E10222901D0022008BD25
:101E700082684FF480539A4201D1016921B1816A8D
:101E80009A421BD04AB10AE00268816A5268C2F3E2
:101E900008020A80816A891C08E0026972B102683E
:101EA000526802F07F020A70816A491C8162C18D0A
:101EB000491E0904090CC18503D019E00268526863
:101EC000F1E70168CA6822F02002CA600168CA68A6
:101ED00022F48072CA6001684A6922F001024A61F4
:101EE000202180F83E10016B012903D0FFF784FC0C
:101EF000002008BD002101630168CA6822F01002B9
:101F0000CA6001680A68D20602D50A684968009169
:101F1000818DFFF7E1FAEBE770B5044600680169CF
:101F2000E26821F44051114301612169A06808432E
:101F3000616908432168CA6841F20C639A4302430D
:101F4000CA6020684169A26921F44071114341616E
:101F50001E492068884202D1FEF726FD01E0FEF707
:101F600013FD00EBC00101EB0012606864218000EA
:101F7000B2FBF0F3B3FBF1F36FF018067343B2FB5F
:101F8000F0F5B2FBF0F605EB8305322303EB051504
:101F9000B5FBF1F5B6FBF1F605F0F00505EB06151E
:101FA000B2FBF0F6B2FBF0F0B0FBF1F06FF018020C
:101FB000504306EB800003EB0010B0FBF1F021680A
:101FC00000F00F002844886070BD00000038014018
:101FD00081628285C28500210164222280F83E2030
:101FE00080F83C100168CA6842F48072CA600168D7
:101FF0004A6942F001024A610068C16841F020016B
:10200000C160002070472DE9F041984617460E4602
:102010000446069D1DE0681C1BD02DB1FEF780FA1A
:10202000A0EB0800A84214D92068C16821F4D0713F
:10203000C1602068416921F001014161202084F8DC
:102040003D0084F83E00002084F83C000320BDE8F9
:10205000F0812068006836EA000004D00020B84211
:10206000D9D00020F3E70120F9E700000148FFF78D
:1020700035BA00000C020020FEE700000FB4054B4B
:1020800010B503A9044A029800F028F810BC5DF8C6
:1020900014FB000079220008180000200907090E2F
:1020A000002804DB00F1E02080F80014704700F005
:1020B0000F0000F1E02080F8141D704702E008C80E
:1020C000121F08C1002AFAD170477047002001E0B2
:1020D00001C1121F002AFBD1704700002DE9FF4FFC
:1020E00089B09B460446002506E025280BD05A46B9
:1020F0000B999047641C6D1C20780028F5D10DB019
:102100002846BDE8F08F0027B8460122474900E085
:10211000074314F8013F203B02FA03F00842F7D1CD
:1021200020782E2819D114F8010F47F004072A2827
:102130000ED06FF02F022078A0F1300109290CD8C1
:1021400008EB880102EB410100EB0108641CF2E797
:102150000A98641C50F8048B0A9020780028CED08E
:10216000642808D0692806D075281ED05A460B99D5
:1021700090476D1C58E00A994FF00A0901C90A916D
:10218000002802DA40422D2102E0390504D52B2136
:102190008DF82010012103E0F90704D02021F7E792
:1021A0008A4608AE0DE00021FAE70A994FF00A09C5
:1021B00001C90A91F7E74946FDF7C8FF303106F833
:1021C000011D0028F7D1ADEB060000F120097807CA
:1021D00001D44FF00108C84502DDA8EB090000E07A
:1021E00000208046002706E008A85A46C05D0B99EB
:1021F00090476D1C7F1C5745F6DB04E030205A46A3
:102200000B9990476D1CB8F10001A8F10108F5DCAD
:1022100005E016F8010B5A460B9990476D1CB9F171
:102220000001A9F10109F4DC641C65E7092801003B
:1022300010B5FEF7A3FB074C60600748FEF7D4FD1E
:1022400000210548FEF73CFF04490020607008703B
:10225000487010BD000000207C0100201C010020FF
:1022600001B5002004E00B21491EC9B2FCD2401C7C
:1022700000998842F7D308BD13B54FF6FF730122CA
:1022800069460248FFF7CAFA00981CBD0C020020FC
:10229000FEF74EFAFFF75CFCFFF71CFBFFF736FC7E
:1022A000FFF79CFBFFF7F2FBFFF7B8FB01220749A2
:1022B0000748FFF78BFAFFF7BBFF4FF4967400BF98
:1022C00000F008F82046FDF7E3FFF9E71C000020C6
:1022D0000C02002070B517480024007801280ED1A8
:1022E0000502154E012229463046FEF714F9142046
:1022F000FFF7B6FF002229463046FEF70CF90F4AD9
:102300005078012814D1D2E90101C1EB01431844EE
:102310004FF4AA73584344F62063B0FBF3F4002053
:10232000507007A0FFF7AAFE214608A0FFF7A6FEFF
:10233000204670BD00000020001001401C0100205C
:10234000706572696F643A2564200900646973746A
:10235000616E63653A2564200A00000000000000F9
:102360000000000001020304060708090000000045
:102370000102030494230008000000201C00000058
:10238000BC200008B02300081C0000203406000018
:10239000CC20000801000000000000000100000047
:1023A00010000000000000000024F4000000000005
:04000005080000ED02
:00000001FF
